{
  "contractName": "Counter",
  "abi": [
    {
      "constant": true,
      "inputs": [],
      "name": "counter",
      "outputs": [
        {
          "name": "",
          "type": "uint256"
        }
      ],
      "payable": false,
      "stateMutability": "view",
      "type": "function"
    },
    {
      "inputs": [],
      "payable": false,
      "stateMutability": "nonpayable",
      "type": "constructor"
    },
    {
      "anonymous": false,
      "inputs": [
        {
          "indexed": false,
          "name": "from",
          "type": "address"
        }
      ],
      "name": "Inc",
      "type": "event"
    },
    {
      "constant": false,
      "inputs": [],
      "name": "inc",
      "outputs": [],
      "payable": false,
      "stateMutability": "nonpayable",
      "type": "function"
    },
    {
      "constant": true,
      "inputs": [],
      "name": "get",
      "outputs": [
        {
          "name": "_counter",
          "type": "uint256"
        }
      ],
      "payable": false,
      "stateMutability": "view",
      "type": "function"
    }
  ],
  "bytecode": "0x608060405234801561001057600080fd5b50610109806100206000396000f3006080604052600436106053576000357c0100000000000000000000000000000000000000000000000000000000900463ffffffff168063371303c014605857806361bc221a14606c5780636d4ce63c146094575b600080fd5b348015606357600080fd5b50606a60bc565b005b348015607757600080fd5b50607e60ce565b6040518082815260200191505060405180910390f35b348015609f57600080fd5b5060a660d4565b6040518082815260200191505060405180910390f35b60016000808282540192505081905550565b60005481565b600080549050905600a165627a7a72305820b8e897182c2d54f197036f25464aa2119a79e404aa0fa39b8afdcc49cf3fcadd0029",
  "source": "pragma solidity ^0.4.23;\n\ncontract Counter {\n   uint256 public counter;\n\n   event Inc(address from);\n   \n   constructor() public {\n   }\n\n   function inc() public {\n       counter += 1;\n   }\n\n   function get() public view returns(uint256 _counter) {\n       return counter;        \n   }\n}",
  "sourcePath": "/Users/minakokojima/Documents/GitHub/dapp-examples/Contracts/Ethereum/contracts/Counter.sol",
  "compiler": {
    "name": "solc",
    "version": "0.4.24+commit.e67f0147.Emscripten.clang"
  },
  "schemaVersion": "2.0.1",
  "updatedAt": "2018-08-06T18:32:45.456Z"
}