{
  "contractName": "Hourglass",
  "abi": [
    {
      "constant": true,
      "inputs": [],
      "name": "name",
      "outputs": [
        {
          "name": "",
          "type": "string"
        }
      ],
      "payable": false,
      "stateMutability": "view",
      "type": "function"
    },
    {
      "constant": true,
      "inputs": [],
      "name": "maxReferrerBonus",
      "outputs": [
        {
          "name": "",
          "type": "uint256"
        }
      ],
      "payable": false,
      "stateMutability": "view",
      "type": "function"
    },
    {
      "constant": true,
      "inputs": [],
      "name": "onlyAmbassadors",
      "outputs": [
        {
          "name": "",
          "type": "bool"
        }
      ],
      "payable": false,
      "stateMutability": "view",
      "type": "function"
    },
    {
      "constant": true,
      "inputs": [],
      "name": "decimals",
      "outputs": [
        {
          "name": "",
          "type": "uint8"
        }
      ],
      "payable": false,
      "stateMutability": "view",
      "type": "function"
    },
    {
      "constant": true,
      "inputs": [
        {
          "name": "",
          "type": "bytes32"
        }
      ],
      "name": "administrators",
      "outputs": [
        {
          "name": "",
          "type": "bool"
        }
      ],
      "payable": false,
      "stateMutability": "view",
      "type": "function"
    },
    {
      "constant": true,
      "inputs": [],
      "name": "maxReferrerBonusRequirement",
      "outputs": [
        {
          "name": "",
          "type": "uint256"
        }
      ],
      "payable": false,
      "stateMutability": "view",
      "type": "function"
    },
    {
      "constant": true,
      "inputs": [],
      "name": "symbol",
      "outputs": [
        {
          "name": "",
          "type": "string"
        }
      ],
      "payable": false,
      "stateMutability": "view",
      "type": "function"
    },
    {
      "constant": true,
      "inputs": [],
      "name": "minReferrerBonus",
      "outputs": [
        {
          "name": "",
          "type": "uint256"
        }
      ],
      "payable": false,
      "stateMutability": "view",
      "type": "function"
    },
    {
      "inputs": [],
      "payable": false,
      "stateMutability": "nonpayable",
      "type": "constructor"
    },
    {
      "payable": true,
      "stateMutability": "payable",
      "type": "fallback"
    },
    {
      "anonymous": false,
      "inputs": [
        {
          "indexed": true,
          "name": "customerAddress",
          "type": "address"
        },
        {
          "indexed": false,
          "name": "incomingEthereum",
          "type": "uint256"
        },
        {
          "indexed": false,
          "name": "tokensMinted",
          "type": "uint256"
        },
        {
          "indexed": true,
          "name": "referredBy",
          "type": "address"
        }
      ],
      "name": "onTokenPurchase",
      "type": "event"
    },
    {
      "anonymous": false,
      "inputs": [
        {
          "indexed": true,
          "name": "customerAddress",
          "type": "address"
        },
        {
          "indexed": false,
          "name": "tokensBurned",
          "type": "uint256"
        },
        {
          "indexed": false,
          "name": "ethereumEarned",
          "type": "uint256"
        }
      ],
      "name": "onTokenSell",
      "type": "event"
    },
    {
      "anonymous": false,
      "inputs": [
        {
          "indexed": true,
          "name": "customerAddress",
          "type": "address"
        },
        {
          "indexed": false,
          "name": "ethereumWithdrawn",
          "type": "uint256"
        }
      ],
      "name": "onWithdraw",
      "type": "event"
    },
    {
      "anonymous": false,
      "inputs": [
        {
          "indexed": true,
          "name": "from",
          "type": "address"
        },
        {
          "indexed": true,
          "name": "to",
          "type": "address"
        },
        {
          "indexed": false,
          "name": "tokens",
          "type": "uint256"
        }
      ],
      "name": "Transfer",
      "type": "event"
    },
    {
      "constant": false,
      "inputs": [],
      "name": "makeProfit",
      "outputs": [],
      "payable": true,
      "stateMutability": "payable",
      "type": "function"
    },
    {
      "constant": false,
      "inputs": [
        {
          "name": "_referredBy",
          "type": "address"
        }
      ],
      "name": "buy",
      "outputs": [
        {
          "name": "",
          "type": "uint256"
        }
      ],
      "payable": true,
      "stateMutability": "payable",
      "type": "function"
    },
    {
      "constant": false,
      "inputs": [],
      "name": "exit",
      "outputs": [],
      "payable": false,
      "stateMutability": "nonpayable",
      "type": "function"
    },
    {
      "constant": false,
      "inputs": [],
      "name": "withdraw",
      "outputs": [],
      "payable": false,
      "stateMutability": "nonpayable",
      "type": "function"
    },
    {
      "constant": false,
      "inputs": [
        {
          "name": "_amountOfTokens",
          "type": "uint256"
        }
      ],
      "name": "sell",
      "outputs": [],
      "payable": false,
      "stateMutability": "nonpayable",
      "type": "function"
    },
    {
      "constant": false,
      "inputs": [
        {
          "name": "_toAddress",
          "type": "address"
        },
        {
          "name": "_amountOfTokens",
          "type": "uint256"
        }
      ],
      "name": "transfer",
      "outputs": [
        {
          "name": "",
          "type": "bool"
        }
      ],
      "payable": false,
      "stateMutability": "nonpayable",
      "type": "function"
    },
    {
      "constant": false,
      "inputs": [],
      "name": "disableInitialStage",
      "outputs": [],
      "payable": false,
      "stateMutability": "nonpayable",
      "type": "function"
    },
    {
      "constant": false,
      "inputs": [
        {
          "name": "_identifier",
          "type": "bytes32"
        },
        {
          "name": "_status",
          "type": "bool"
        }
      ],
      "name": "setAdministrator",
      "outputs": [],
      "payable": false,
      "stateMutability": "nonpayable",
      "type": "function"
    },
    {
      "constant": false,
      "inputs": [
        {
          "name": "_minReferrerBonus",
          "type": "uint256"
        }
      ],
      "name": "setMinReferrerBonus",
      "outputs": [],
      "payable": false,
      "stateMutability": "nonpayable",
      "type": "function"
    },
    {
      "constant": false,
      "inputs": [
        {
          "name": "_maxReferrerBonus",
          "type": "uint256"
        }
      ],
      "name": "setMaxReferrerBonus",
      "outputs": [],
      "payable": false,
      "stateMutability": "nonpayable",
      "type": "function"
    },
    {
      "constant": false,
      "inputs": [
        {
          "name": "_maxReferrerBonusRequirement",
          "type": "uint256"
        }
      ],
      "name": "setMaxReferrerBonusRequirement",
      "outputs": [],
      "payable": false,
      "stateMutability": "nonpayable",
      "type": "function"
    },
    {
      "constant": false,
      "inputs": [
        {
          "name": "_name",
          "type": "string"
        }
      ],
      "name": "setName",
      "outputs": [],
      "payable": false,
      "stateMutability": "nonpayable",
      "type": "function"
    },
    {
      "constant": false,
      "inputs": [
        {
          "name": "_symbol",
          "type": "string"
        }
      ],
      "name": "setSymbol",
      "outputs": [],
      "payable": false,
      "stateMutability": "nonpayable",
      "type": "function"
    },
    {
      "constant": true,
      "inputs": [],
      "name": "totalEthereumBalance",
      "outputs": [
        {
          "name": "",
          "type": "uint256"
        }
      ],
      "payable": false,
      "stateMutability": "view",
      "type": "function"
    },
    {
      "constant": true,
      "inputs": [],
      "name": "totalSupply",
      "outputs": [
        {
          "name": "",
          "type": "uint256"
        }
      ],
      "payable": false,
      "stateMutability": "view",
      "type": "function"
    },
    {
      "constant": true,
      "inputs": [],
      "name": "myTokens",
      "outputs": [
        {
          "name": "",
          "type": "uint256"
        }
      ],
      "payable": false,
      "stateMutability": "view",
      "type": "function"
    },
    {
      "constant": true,
      "inputs": [
        {
          "name": "_includeReferralBonus",
          "type": "bool"
        }
      ],
      "name": "myDividends",
      "outputs": [
        {
          "name": "",
          "type": "uint256"
        }
      ],
      "payable": false,
      "stateMutability": "view",
      "type": "function"
    },
    {
      "constant": true,
      "inputs": [
        {
          "name": "_customerAddress",
          "type": "address"
        }
      ],
      "name": "balanceOf",
      "outputs": [
        {
          "name": "",
          "type": "uint256"
        }
      ],
      "payable": false,
      "stateMutability": "view",
      "type": "function"
    },
    {
      "constant": true,
      "inputs": [
        {
          "name": "_customerAddress",
          "type": "address"
        }
      ],
      "name": "dividendsOf",
      "outputs": [
        {
          "name": "",
          "type": "uint256"
        }
      ],
      "payable": false,
      "stateMutability": "view",
      "type": "function"
    },
    {
      "constant": true,
      "inputs": [],
      "name": "sellPrice",
      "outputs": [
        {
          "name": "",
          "type": "uint256"
        }
      ],
      "payable": false,
      "stateMutability": "view",
      "type": "function"
    },
    {
      "constant": true,
      "inputs": [],
      "name": "buyPrice",
      "outputs": [
        {
          "name": "",
          "type": "uint256"
        }
      ],
      "payable": false,
      "stateMutability": "view",
      "type": "function"
    },
    {
      "constant": true,
      "inputs": [
        {
          "name": "_ethereumToSpend",
          "type": "uint256"
        }
      ],
      "name": "calculateTokensReceived",
      "outputs": [
        {
          "name": "",
          "type": "uint256"
        }
      ],
      "payable": false,
      "stateMutability": "view",
      "type": "function"
    },
    {
      "constant": true,
      "inputs": [
        {
          "name": "_tokensToSell",
          "type": "uint256"
        }
      ],
      "name": "calculateEthereumReceived",
      "outputs": [
        {
          "name": "",
          "type": "uint256"
        }
      ],
      "payable": false,
      "stateMutability": "view",
      "type": "function"
    },
    {
      "constant": false,
      "inputs": [
        {
          "name": "_value",
          "type": "uint256"
        }
      ],
      "name": "getReferralBonus",
      "outputs": [
        {
          "name": "referralBonus",
          "type": "uint256"
        }
      ],
      "payable": false,
      "stateMutability": "nonpayable",
      "type": "function"
    }
  ],
  "bytecode": "0x60806040526040805190810160405280600b81526020017f4467616d65204d616b657200000000000000000000000000000000000000000081525060009080519060200190620000519291906200013e565b506040805190810160405280600381526020017f44474d0000000000000000000000000000000000000000000000000000000000815250600190805190602001906200009f9291906200013e565b506001600255600a60035568056bc75e2d6310000060045560006009556001600c60006101000a81548160ff021916908315150217905550348015620000e457600080fd5b506001600b60007fdd8bb99b13fe33e1c32254dfb8fff3e71193f6b730a89dd33bfe5dedc6d8300260010260001916815260200190815260200160002060006101000a81548160ff021916908315150217905550620001ed565b828054600181600116156101000203166002900490600052602060002090601f016020900481019282601f106200018157805160ff1916838001178555620001b2565b82800160010185558215620001b2579182015b82811115620001b157825182559160200191906001019062000194565b5b509050620001c19190620001c5565b5090565b620001ea91905b80821115620001e6576000816000905550600101620001cc565b5090565b90565b61201380620001fd6000396000f300608060405260043610610195576000357c0100000000000000000000000000000000000000000000000000000000900463ffffffff16806265318b146101a357806306fdde03146101fa57806310d0ffdd1461028a578063115c8d95146102cb57806317203e1d146102f657806318160ddd14610300578063226093731461032b57806327defa1f1461036c578063313ce5671461039b578063376fc952146103cc578063392efb52146103f95780633ccfd60b146104425780634b7503341461045957806356d13e6e14610484578063688abbf7146104b15780636b2f4632146104f457806370a082311461051f5780637feddebe146105765780638620410b146105a157806389135ae9146105cc5780638fb21a4b14610609578063949e8acd1461063657806395d89b4114610661578063a8e04f34146106f1578063a9059cbb14610708578063ad33e21d1461076d578063b84c8246146107ae578063c47f002714610817578063d0197ef114610880578063e4849b32146108ab578063e9fad8ee146108d8578063f088d547146108ef575b6101a0346000610939565b50005b3480156101af57600080fd5b506101e4600480360381019080803573ffffffffffffffffffffffffffffffffffffffff169060200190929190505050610c87565b6040518082815260200191505060405180910390f35b34801561020657600080fd5b5061020f610d29565b6040518080602001828103825283818151815260200191508051906020019080838360005b8381101561024f578082015181840152602081019050610234565b50505050905090810190601f16801561027c5780820380516001836020036101000a031916815260200191505b509250505060405180910390f35b34801561029657600080fd5b506102b560048036038101908080359060200190929190505050610dc7565b6040518082815260200191505060405180910390f35b3480156102d757600080fd5b506102e0610dff565b6040518082815260200191505060405180910390f35b6102fe610e05565b005b34801561030c57600080fd5b50610315610e10565b6040518082815260200191505060405180910390f35b34801561033757600080fd5b5061035660048036038101908080359060200190929190505050610e1a565b6040518082815260200191505060405180910390f35b34801561037857600080fd5b50610381610e63565b604051808215151515815260200191505060405180910390f35b3480156103a757600080fd5b506103b0610e76565b604051808260ff1660ff16815260200191505060405180910390f35b3480156103d857600080fd5b506103f760048036038101908080359060200190929190505050610e7b565b005b34801561040557600080fd5b506104286004803603810190808035600019169060200190929190505050610f0f565b604051808215151515815260200191505060405180910390f35b34801561044e57600080fd5b50610457610f2f565b005b34801561046557600080fd5b5061046e6110d3565b6040518082815260200191505060405180910390f35b34801561049057600080fd5b506104af60048036038101908080359060200190929190505050611131565b005b3480156104bd57600080fd5b506104de6004803603810190808035151590602001909291905050506111c5565b6040518082815260200191505060405180910390f35b34801561050057600080fd5b50610509611231565b6040518082815260200191505060405180910390f35b34801561052b57600080fd5b50610560600480360381019080803573ffffffffffffffffffffffffffffffffffffffff169060200190929190505050611250565b6040518082815260200191505060405180910390f35b34801561058257600080fd5b5061058b611299565b6040518082815260200191505060405180910390f35b3480156105ad57600080fd5b506105b661129f565b6040518082815260200191505060405180910390f35b3480156105d857600080fd5b5061060760048036038101908080356000191690602001909291908035151590602001909291905050506112fd565b005b34801561061557600080fd5b50610634600480360381019080803590602001909291905050506113be565b005b34801561064257600080fd5b5061064b611452565b6040518082815260200191505060405180910390f35b34801561066d57600080fd5b50610676611467565b6040518080602001828103825283818151815260200191508051906020019080838360005b838110156106b657808201518184015260208101905061069b565b50505050905090810190601f1680156106e35780820380516001836020036101000a031916815260200191505b509250505060405180910390f35b3480156106fd57600080fd5b50610706611505565b005b34801561071457600080fd5b50610753600480360381019080803573ffffffffffffffffffffffffffffffffffffffff169060200190929190803590602001909291905050506115ac565b604051808215151515815260200191505060405180910390f35b34801561077957600080fd5b50610798600480360381019080803590602001909291905050506118bd565b6040518082815260200191505060405180910390f35b3480156107ba57600080fd5b50610815600480360381019080803590602001908201803590602001908080601f0160208091040260200160405190810160405280939291908181526020018383808284378201915050505050509192919290505050611931565b005b34801561082357600080fd5b5061087e600480360381019080803590602001908201803590602001908080601f01602080910402602001604051908101604052809392919081815260200183838082843782019150505050505091929192905050506119d5565b005b34801561088c57600080fd5b50610895611a79565b6040518082815260200191505060405180910390f35b3480156108b757600080fd5b506108d660048036038101908080359060200190929190505050611a7f565b005b3480156108e457600080fd5b506108ed611c8c565b005b610923600480360381019080803573ffffffffffffffffffffffffffffffffffffffff169060200190929190505050611cf3565b6040518082815260200191505060405180910390f35b60008060008060008060008060003397506109588b600a60ff16611d05565b9650610963876118bd565b955061096f8787611d20565b945061097b8b88611d20565b935061098684611d39565b925068010000000000000000850291506000831180156109b257506009546109b084600954611dc6565b115b15156109bd57600080fd5b600073ffffffffffffffffffffffffffffffffffffffff168a73ffffffffffffffffffffffffffffffffffffffff1614158015610a2657508773ffffffffffffffffffffffffffffffffffffffff168a73ffffffffffffffffffffffffffffffffffffffff1614155b15610abc57610a74600660008c73ffffffffffffffffffffffffffffffffffffffff1673ffffffffffffffffffffffffffffffffffffffff1681526020019081526020016000205487611dc6565b600660008c73ffffffffffffffffffffffffffffffffffffffff1673ffffffffffffffffffffffffffffffffffffffff16815260200190815260200160002081905550610ad7565b610ac68587611dc6565b945068010000000000000000850291505b60006009541115610b1f57610aee60095484611dc6565b600981905550610afd85611de4565b600954680100000000000000008602811515610b1557fe5b0483029150610b27565b826009819055505b610b70600560008a73ffffffffffffffffffffffffffffffffffffffff1673ffffffffffffffffffffffffffffffffffffffff1681526020019081526020016000205484611dc6565b600560008a73ffffffffffffffffffffffffffffffffffffffff1673ffffffffffffffffffffffffffffffffffffffff168152602001908152602001600020819055508183600a540203905080600760008a73ffffffffffffffffffffffffffffffffffffffff1673ffffffffffffffffffffffffffffffffffffffff168152602001908152602001600020600082825401925050819055508973ffffffffffffffffffffffffffffffffffffffff168873ffffffffffffffffffffffffffffffffffffffff167f022c0d992e4d873a3748436d960d5140c1f9721cf73f7ca5ec679d3d9f4fe2d58d86604051808381526020018281526020019250505060405180910390a3829850505050505050505092915050565b600068010000000000000000600760008473ffffffffffffffffffffffffffffffffffffffff1673ffffffffffffffffffffffffffffffffffffffff16815260200190815260200160002054600560008573ffffffffffffffffffffffffffffffffffffffff1673ffffffffffffffffffffffffffffffffffffffff16815260200190815260200160002054600a540203811515610d2157fe5b049050919050565b60008054600181600116156101000203166002900480601f016020809104026020016040519081016040528092919081815260200182805460018160011615610100020316600290048015610dbf5780601f10610d9457610100808354040283529160200191610dbf565b820191906000526020600020905b815481529060010190602001808311610da257829003601f168201915b505050505081565b600080600080610ddb85600a60ff16611d05565b9250610de78584611d20565b9150610df282611d39565b9050809350505050919050565b60035481565b610e0e34611de4565b565b6000600954905090565b6000806000806009548511151515610e3157600080fd5b610e3a85611e11565b9250610e4a83600a60ff16611d05565b9150610e568383611d20565b9050809350505050919050565b600c60009054906101000a900460ff1681565b601281565b6000339050600b600082604051808273ffffffffffffffffffffffffffffffffffffffff1673ffffffffffffffffffffffffffffffffffffffff166c0100000000000000000000000002815260140191505060405180910390206000191660001916815260200190815260200160002060009054906101000a900460ff161515610f0457600080fd5b816004819055505050565b600b6020528060005260406000206000915054906101000a900460ff1681565b6000806000610f3e60016111c5565b111515610f4a57600080fd5b339150610f5760006111c5565b9050680100000000000000008102600760008473ffffffffffffffffffffffffffffffffffffffff1673ffffffffffffffffffffffffffffffffffffffff16815260200190815260200160002060008282540192505081905550600660008373ffffffffffffffffffffffffffffffffffffffff1673ffffffffffffffffffffffffffffffffffffffff16815260200190815260200160002054810190506000600660008473ffffffffffffffffffffffffffffffffffffffff1673ffffffffffffffffffffffffffffffffffffffff168152602001908152602001600020819055508173ffffffffffffffffffffffffffffffffffffffff166108fc829081150290604051600060405180830381858888f19350505050158015611080573d6000803e3d6000fd5b508173ffffffffffffffffffffffffffffffffffffffff167fccad973dcd043c7d680389db4378bd6b9775db7124092e9e0422c9e46d7985dc826040518082815260200191505060405180910390a25050565b600080600080600060095414156110f8576402540be40064174876e80003935061112b565b611109670de0b6b3a7640000611e11565b925061111983600a60ff16611d05565b91506111258383611d20565b90508093505b50505090565b6000339050600b600082604051808273ffffffffffffffffffffffffffffffffffffffff1673ffffffffffffffffffffffffffffffffffffffff166c0100000000000000000000000002815260140191505060405180910390206000191660001916815260200190815260200160002060009054906101000a900460ff1615156111ba57600080fd5b816003819055505050565b600080339050826111de576111d981610c87565b611229565b600660008273ffffffffffffffffffffffffffffffffffffffff1673ffffffffffffffffffffffffffffffffffffffff1681526020019081526020016000205461122782610c87565b015b915050919050565b60003073ffffffffffffffffffffffffffffffffffffffff1631905090565b6000600560008373ffffffffffffffffffffffffffffffffffffffff1673ffffffffffffffffffffffffffffffffffffffff168152602001908152602001600020549050919050565b60045481565b600080600080600060095414156112c4576402540be40064174876e8000193506112f7565b6112d5670de0b6b3a7640000611e11565b92506112e583600a60ff16611d05565b91506112f18383611dc6565b90508093505b50505090565b6000339050600b600082604051808273ffffffffffffffffffffffffffffffffffffffff1673ffffffffffffffffffffffffffffffffffffffff166c0100000000000000000000000002815260140191505060405180910390206000191660001916815260200190815260200160002060009054906101000a900460ff16151561138657600080fd5b81600b6000856000191660001916815260200190815260200160002060006101000a81548160ff021916908315150217905550505050565b6000339050600b600082604051808273ffffffffffffffffffffffffffffffffffffffff1673ffffffffffffffffffffffffffffffffffffffff166c0100000000000000000000000002815260140191505060405180910390206000191660001916815260200190815260200160002060009054906101000a900460ff16151561144757600080fd5b816002819055505050565b60008033905061146181611250565b91505090565b60018054600181600116156101000203166002900480601f0160208091040260200160405190810160405280929190818152602001828054600181600116156101000203166002900480156114fd5780601f106114d2576101008083540402835291602001916114fd565b820191906000526020600020905b8154815290600101906020018083116114e057829003601f168201915b505050505081565b6000339050600b600082604051808273ffffffffffffffffffffffffffffffffffffffff1673ffffffffffffffffffffffffffffffffffffffff166c0100000000000000000000000002815260140191505060405180910390206000191660001916815260200190815260200160002060009054906101000a900460ff16151561158e57600080fd5b6000600c60006101000a81548160ff02191690831515021790555050565b6000806000806000806115bd611452565b1115156115c957600080fd5b339350600c60009054906101000a900460ff161580156116285750600560008573ffffffffffffffffffffffffffffffffffffffff1673ffffffffffffffffffffffffffffffffffffffff168152602001908152602001600020548611155b151561163357600080fd5b600061163f60016111c5565b111561164e5761164d610f2f565b5b61165c86600a60ff16611d05565b92506116688684611d20565b915061167383611e11565b905061168160095484611d20565b6009819055506116d0600560008673ffffffffffffffffffffffffffffffffffffffff1673ffffffffffffffffffffffffffffffffffffffff1681526020019081526020016000205487611d20565b600560008673ffffffffffffffffffffffffffffffffffffffff1673ffffffffffffffffffffffffffffffffffffffff1681526020019081526020016000208190555061175c600560008973ffffffffffffffffffffffffffffffffffffffff1673ffffffffffffffffffffffffffffffffffffffff1681526020019081526020016000205483611dc6565b600560008973ffffffffffffffffffffffffffffffffffffffff1673ffffffffffffffffffffffffffffffffffffffff1681526020019081526020016000208190555085600a5402600760008673ffffffffffffffffffffffffffffffffffffffff1673ffffffffffffffffffffffffffffffffffffffff1681526020019081526020016000206000828254039250508190555081600a5402600760008973ffffffffffffffffffffffffffffffffffffffff1673ffffffffffffffffffffffffffffffffffffffff1681526020019081526020016000206000828254019250508190555061184a81611de4565b8673ffffffffffffffffffffffffffffffffffffffff168473ffffffffffffffffffffffffffffffffffffffff167fddf252ad1be2c89b69c2b068fc378daa952ba7f163c4a11628f55a4df523b3ef846040518082815260200191505060405180910390a3600194505050505092915050565b6000806004546118cc33611250565b1015156118f0576118e96118e1846064611ebc565b600354611d05565b915061192b565b6004546118fc33611250565b600254600354030281151561190d57fe5b04600254019050611928611922846064611ebc565b82611d05565b91505b50919050565b6000339050600b600082604051808273ffffffffffffffffffffffffffffffffffffffff1673ffffffffffffffffffffffffffffffffffffffff166c0100000000000000000000000002815260140191505060405180910390206000191660001916815260200190815260200160002060009054906101000a900460ff1615156119ba57600080fd5b81600190805190602001906119d0929190611f42565b505050565b6000339050600b600082604051808273ffffffffffffffffffffffffffffffffffffffff1673ffffffffffffffffffffffffffffffffffffffff166c0100000000000000000000000002815260140191505060405180910390206000191660001916815260200190815260200160002060009054906101000a900460ff161515611a5e57600080fd5b8160009080519060200190611a74929190611f42565b505050565b60025481565b6000806000806000806000611a92611452565b111515611a9e57600080fd5b339550600560008773ffffffffffffffffffffffffffffffffffffffff1673ffffffffffffffffffffffffffffffffffffffff168152602001908152602001600020548711151515611aef57600080fd5b869450611afb85611e11565b9350611b0b84600a60ff16611d05565b9250611b178484611d20565b9150611b2560095486611d20565b600981905550611b74600560008873ffffffffffffffffffffffffffffffffffffffff1673ffffffffffffffffffffffffffffffffffffffff1681526020019081526020016000205486611d20565b600560008873ffffffffffffffffffffffffffffffffffffffff1673ffffffffffffffffffffffffffffffffffffffff1681526020019081526020016000208190555068010000000000000000820285600a540201905080600760008873ffffffffffffffffffffffffffffffffffffffff1673ffffffffffffffffffffffffffffffffffffffff1681526020019081526020016000206000828254039250508190555060006009541115611c2d57611c2c83611de4565b5b8573ffffffffffffffffffffffffffffffffffffffff167fc4823739c5787d2ca17e404aa47d5569ae71dfb49cbf21b3f6152ed238a311398684604051808381526020018281526020019250505060405180910390a250505050505050565b600080339150600560008373ffffffffffffffffffffffffffffffffffffffff1673ffffffffffffffffffffffffffffffffffffffff1681526020019081526020016000205490506000811115611ce757611ce681611a7f565b5b611cef610f2f565b5050565b6000611cff3483610939565b50919050565b6000808284811515611d1357fe5b0490508091505092915050565b6000828211151515611d2e57fe5b818303905092915050565b6000806000670de0b6b3a764000064174876e8000291506009546402540be400611daf611da9600954866402540be400600202020260026009540a60026402540be4000a02670de0b6b3a76400008a02670de0b6b3a76400006402540be40002600202026002890a010101611ef7565b85611d20565b811515611db857fe5b040390508092505050919050565b6000808284019050838110151515611dda57fe5b8091505092915050565b611e08600a54600954680100000000000000008402811515611e0257fe5b04611dc6565b600a8190555050565b600080600080670de0b6b3a764000085019250670de0b6b3a7640000600954019150670de0b6b3a7640000611ea5670de0b6b3a764000085036402540be400670de0b6b3a764000086811515611e6357fe5b046402540be4000264174876e8000103026002670de0b6b3a7640000876002890a03811515611e8e57fe5b046402540be40002811515611e9f57fe5b04611d20565b811515611eae57fe5b049050809350505050919050565b6000806000841415611ed15760009150611ef0565b8284029050828482811515611ee257fe5b04141515611eec57fe5b8091505b5092915050565b600080600260018401811515611f0957fe5b0490508291505b81811015611f3c578091506002818285811515611f2957fe5b0401811515611f3457fe5b049050611f10565b50919050565b828054600181600116156101000203166002900490600052602060002090601f016020900481019282601f10611f8357805160ff1916838001178555611fb1565b82800160010185558215611fb1579182015b82811115611fb0578251825591602001919060010190611f95565b5b509050611fbe9190611fc2565b5090565b611fe491905b80821115611fe0576000816000905550600101611fc8565b5090565b905600a165627a7a72305820eee9b619a428b9ea226ac8383e1b97fd7e1dea1908b2fdb0290e44130783e1800029",
  "source": "pragma solidity ^0.4.17;\n\n/**\n * ________                                    _____          __                 \n * \\______ \\    _________    _____   ____     /     \\ _____  |  | __ ___________ \n * |    |  \\  / ___\\__  \\  /     \\_/ __ \\   /  \\ /  \\\\__  \\ |  |/ // __ \\_  __ \\\n * |    `   \\/ /_/  > __ \\|  Y Y  \\  ___/  /    Y    \\/ __ \\|    <\\  ___/|  | \\/\n * /_______  /\\___  (____  /__|_|  /\\___  > \\____|__  (____  /__|_ \\\\___  >__|   \n *         \\//_____/     \\/      \\/     \\/          \\/     \\/     \\/    \\/       \n * Powered by Andoromeda \n */\n\n/**\n * @title Dgame Maker Token\n * @dev Dgame Maker Token which can be trade in the contract.\n * we support buy() and sell() function in a simpilified 50% CW bancor algorithm.\n */\ncontract Hourglass {\n    /*=================================\n    =            MODIFIERS            =\n    =================================*/\n    // only people with tokens\n    modifier onlyBagholders() {\n        require(myTokens() > 0);\n        _;\n    }\n    \n    // only people with profits\n    modifier onlyStronghands() {\n        require(myDividends(true) > 0);\n        _;\n    }\n    \n    // administrators can:\n    // -> change the name of the contract\n    // -> change the name of the token\n    // -> change the PoS difficulty (How many tokens it costs to hold a masternode, in case it gets crazy high later)\n    // they CANNOT:\n    // -> take funds\n    // -> disable withdrawals\n    // -> kill the contract\n    // -> change the price of tokens\n    modifier onlyAdministrator(){\n        address _customerAddress = msg.sender;\n        require(administrators[keccak256(_customerAddress)]);\n        _;\n    }\n        \n    \n    /*==============================\n    =            EVENTS            =\n    ==============================*/\n    event onTokenPurchase(\n        address indexed customerAddress,\n        uint256 incomingEthereum,\n        uint256 tokensMinted,\n        address indexed referredBy\n    );\n    \n    event onTokenSell(\n        address indexed customerAddress,\n        uint256 tokensBurned,\n        uint256 ethereumEarned\n    );\n    \n    event onWithdraw(\n        address indexed customerAddress,\n        uint256 ethereumWithdrawn\n    );\n    \n    // ERC20\n    event Transfer(\n        address indexed from,\n        address indexed to,\n        uint256 tokens\n    );\n    \n    \n    /*=====================================\n    =            CONFIGURABLES            =\n    =====================================*/\n    string public name = \"Dgame Maker\";\n    string public symbol = \"DGM\";\n    uint8 constant public decimals = 18;\n    uint8 constant internal dividendFee_ = 10;\n    uint256 constant internal tokenPriceInitial_ = 0.0000001 ether;\n    uint256 constant internal tokenPriceIncremental_ = 0.00000001 ether;\n    uint256 constant internal magnitude = 2**64;\n    \n    // Referrer Bonus\n    uint256 public minReferrerBonus = 1; // 1%\n    uint256 public maxReferrerBonus = 10; // 10%\n    uint256 public maxReferrerBonusRequirement = 100e18; // 100 DGM\n        \n   /*================================\n    =            DATASETS            =\n    ================================*/\n    // amount of shares for each address (scaled number)\n    mapping(address => uint256) internal tokenBalanceLedger_;\n    mapping(address => uint256) internal referralBalance_;\n    mapping(address => int256) internal payoutsTo_;\n    mapping(address => uint256) internal ambassadorAccumulatedQuota_;\n    uint256 internal tokenSupply_ = 0;\n    uint256 internal profitPerShare_;\n    \n    // administrator list (see above on what they can do)\n    mapping(bytes32 => bool) public administrators;\n    \n    // when this is set to true, only ambassadors can purchase tokens (this prevents a whale premine, it ensures a fairly distributed upper pyramid)\n    bool public onlyAmbassadors = true;\n    \n    /*=======================================\n    =            PUBLIC FUNCTIONS            =\n    =======================================*/\n    /*\n    * -- APPLICATION ENTRY POINTS --  \n    */\n    function Hourglass()\n        public\n    {\n        // add administrators here\n        administrators[0xdd8bb99b13fe33e1c32254dfb8fff3e71193f6b730a89dd33bfe5dedc6d83002] = true;        \n    }\n\n\n    /**\n    * @dev Make profit from an external project\n    */\n    function makeProfit() external payable {\n        makeProfit(msg.value);\n    }    \n\n    /**\n    * @dev Make profit inside this contact\n    */\n    function makeProfit(uint256 _profit) internal {\n        // take the amount of dividends gained through this transaction, and allocates them evenly to each shareholder\n        profitPerShare_ = SafeMath.add(profitPerShare_, (_profit * magnitude) / tokenSupply_);            \n    }\n\n    /**\n     * Converts all incoming ethereum to tokens for the caller, and passes down the referral addy (if any)\n     */\n    function buy(address _referredBy)\n        public\n        payable\n        returns(uint256)\n    {\n        purchaseTokens(msg.value, _referredBy);\n    }\n    \n    /**\n     * Fallback function to handle ethereum that was send straight to the contract\n     * Unfortunately we cannot use a referral address this way.\n     */\n    function()\n        payable\n        public\n    {\n        purchaseTokens(msg.value, 0x0);\n    }\n        \n    /**\n     * Alias of sell() and withdraw().\n     */\n    function exit()\n        public\n    {\n        // get token count for caller & sell them all\n        address _customerAddress = msg.sender;\n        uint256 _tokens = tokenBalanceLedger_[_customerAddress];\n        if(_tokens > 0) sell(_tokens);\n        \n        // lambo delivery service\n        withdraw();\n    }\n\n    /**\n     * Withdraws all of the callers earnings.\n     */\n    function withdraw()\n        onlyStronghands()\n        public\n    {\n        // setup data\n        address _customerAddress = msg.sender;\n        uint256 _dividends = myDividends(false); // get ref. bonus later in the code\n        \n        // update dividend tracker\n        payoutsTo_[_customerAddress] +=  (int256) (_dividends * magnitude);\n        \n        // add ref. bonus\n        _dividends += referralBalance_[_customerAddress];\n        referralBalance_[_customerAddress] = 0;\n        \n        // lambo delivery service\n        _customerAddress.transfer(_dividends);\n        \n        // fire event\n        onWithdraw(_customerAddress, _dividends);\n    }\n    \n    /**\n     * Liquifies tokens to ethereum.\n     */\n    function sell(uint256 _amountOfTokens)\n        onlyBagholders()\n        public\n    {\n        // setup data\n        address _customerAddress = msg.sender;\n        // russian hackers BTFO\n        require(_amountOfTokens <= tokenBalanceLedger_[_customerAddress]);\n        uint256 _tokens = _amountOfTokens;\n        uint256 _ethereum = tokensToEthereum_(_tokens);\n        uint256 _dividends = SafeMath.div(_ethereum, dividendFee_);\n        uint256 _taxedEthereum = SafeMath.sub(_ethereum, _dividends);\n        \n        // burn the sold tokens\n        tokenSupply_ = SafeMath.sub(tokenSupply_, _tokens);\n        tokenBalanceLedger_[_customerAddress] = SafeMath.sub(tokenBalanceLedger_[_customerAddress], _tokens);\n        \n        // update dividends tracker\n        int256 _updatedPayouts = (int256) (profitPerShare_ * _tokens + (_taxedEthereum * magnitude));\n        payoutsTo_[_customerAddress] -= _updatedPayouts;       \n        \n        // dividing by zero is a bad idea\n        if (tokenSupply_ > 0) {\n            // update the amount of dividends per token\n            makeProfit(_dividends);\n        }\n        \n        // fire event\n        onTokenSell(_customerAddress, _tokens, _taxedEthereum);\n    }\n    \n    \n    /**\n     * Transfer tokens from the caller to a new holder.\n     * Remember, there's a 10% fee here as well.\n     */\n    function transfer(address _toAddress, uint256 _amountOfTokens)\n        onlyBagholders()\n        public\n        returns(bool)\n    {\n        // setup\n        address _customerAddress = msg.sender;\n        \n        // make sure we have the requested tokens\n        // also disables transfers until ambassador phase is over\n        // ( we dont want whale premines )\n        require(!onlyAmbassadors && _amountOfTokens <= tokenBalanceLedger_[_customerAddress]);\n        \n        // withdraw all outstanding dividends first\n        if(myDividends(true) > 0) withdraw();\n        \n        // liquify 10% of the tokens that are transfered\n        // these are dispersed to shareholders\n        uint256 _tokenFee = SafeMath.div(_amountOfTokens, dividendFee_);\n        uint256 _taxedTokens = SafeMath.sub(_amountOfTokens, _tokenFee);\n        uint256 _dividends = tokensToEthereum_(_tokenFee);\n  \n        // burn the fee tokens\n        tokenSupply_ = SafeMath.sub(tokenSupply_, _tokenFee);\n\n        // exchange tokens\n        tokenBalanceLedger_[_customerAddress] = SafeMath.sub(tokenBalanceLedger_[_customerAddress], _amountOfTokens);\n        tokenBalanceLedger_[_toAddress] = SafeMath.add(tokenBalanceLedger_[_toAddress], _taxedTokens);\n        \n        // update dividend trackers\n        payoutsTo_[_customerAddress] -= (int256) (profitPerShare_ * _amountOfTokens);\n        payoutsTo_[_toAddress] += (int256) (profitPerShare_ * _taxedTokens);\n        \n        // disperse dividends among holders\n        makeProfit(_dividends);\n        \n        // fire event\n        Transfer(_customerAddress, _toAddress, _taxedTokens);\n        \n        // ERC20\n        return true;\n       \n    }\n    \n    /*----------  ADMINISTRATOR ONLY FUNCTIONS  ----------*/\n    /**\n     * In case the amassador quota is not met, the administrator can manually disable the ambassador phase.\n     */\n    function disableInitialStage()\n        onlyAdministrator()\n        public\n    {\n        onlyAmbassadors = false;\n    }\n    \n    /**\n     * In case one of us dies, we need to replace ourselves.\n     */\n    function setAdministrator(bytes32 _identifier, bool _status)\n        onlyAdministrator()\n        public\n    {\n        administrators[_identifier] = _status;\n    }\n    \n    /**\n     * Precautionary measures in case we need to adjust the masternode rate.\n     */\n    function setMinReferrerBonus(uint256 _minReferrerBonus)\n        onlyAdministrator()\n        public\n    {\n        minReferrerBonus = _minReferrerBonus;\n    }\n\n    /**\n     * Precautionary measures in case we need to adjust the masternode rate.\n     */\n    function setMaxReferrerBonus(uint256 _maxReferrerBonus)\n        onlyAdministrator()\n        public\n    {\n        maxReferrerBonus = _maxReferrerBonus;\n    }\n    \n    /**\n     * Precautionary measures in case we need to adjust the masternode rate.\n     */\n    function setMaxReferrerBonusRequirement(uint256 _maxReferrerBonusRequirement)\n        onlyAdministrator()\n        public\n    {\n        maxReferrerBonusRequirement = _maxReferrerBonusRequirement;\n    }        \n    \n    /**\n     * If we want to rebrand, we can.\n     */\n    function setName(string _name)\n        onlyAdministrator()\n        public\n    {\n        name = _name;\n    }\n    \n    /**\n     * If we want to rebrand, we can.\n     */\n    function setSymbol(string _symbol)\n        onlyAdministrator()\n        public\n    {\n        symbol = _symbol;\n    }\n\n    \n    /*----------  HELPERS AND CALCULATORS  ----------*/\n    /**\n     * Method to view the current Ethereum stored in the contract\n     * Example: totalEthereumBalance()\n     */\n    function totalEthereumBalance()\n        public\n        view\n        returns(uint)\n    {\n        return this.balance;\n    }\n    \n    /**\n     * Retrieve the total token supply.\n     */\n    function totalSupply()\n        public\n        view\n        returns(uint256)\n    {\n        return tokenSupply_;\n    }\n    \n    /**\n     * Retrieve the tokens owned by the caller.\n     */\n    function myTokens()\n        public\n        view\n        returns(uint256)\n    {\n        address _customerAddress = msg.sender;\n        return balanceOf(_customerAddress);\n    }\n    \n    /**\n     * Retrieve the dividends owned by the caller.\n     * If `_includeReferralBonus` is to to 1/true, the referral bonus will be included in the calculations.\n     * The reason for this, is that in the frontend, we will want to get the total divs (global + ref)\n     * But in the internal calculations, we want them separate. \n     */ \n    function myDividends(bool _includeReferralBonus) \n        public \n        view \n        returns(uint256)\n    {\n        address _customerAddress = msg.sender;\n        return _includeReferralBonus ? dividendsOf(_customerAddress) + referralBalance_[_customerAddress] : dividendsOf(_customerAddress) ;\n    }\n    \n    /**\n     * Retrieve the token balance of any single address.\n     */\n    function balanceOf(address _customerAddress)\n        view\n        public\n        returns(uint256)\n    {\n        return tokenBalanceLedger_[_customerAddress];\n    }\n    \n    /**\n     * Retrieve the dividend balance of any single address.\n     */\n    function dividendsOf(address _customerAddress)\n        view\n        public\n        returns(uint256)\n    {\n        return (uint256) ((int256)(profitPerShare_ * tokenBalanceLedger_[_customerAddress]) - payoutsTo_[_customerAddress]) / magnitude;\n    }\n    \n    /**\n     * Return the buy price of 1 individual token.\n     */\n    function sellPrice() \n        public \n        view \n        returns(uint256)\n    {\n        // our calculation relies on the token supply, so we need supply. Doh.\n        if(tokenSupply_ == 0){\n            return tokenPriceInitial_ - tokenPriceIncremental_;\n        } else {\n            uint256 _ethereum = tokensToEthereum_(1e18);\n            uint256 _dividends = SafeMath.div(_ethereum, dividendFee_  );\n            uint256 _taxedEthereum = SafeMath.sub(_ethereum, _dividends);\n            return _taxedEthereum;\n        }\n    }\n    \n    /**\n     * Return the sell price of 1 individual token.\n     */\n    function buyPrice() \n        public \n        view \n        returns(uint256)\n    {\n        // our calculation relies on the token supply, so we need supply. Doh.\n        if(tokenSupply_ == 0){\n            return tokenPriceInitial_ + tokenPriceIncremental_;\n        } else {\n            uint256 _ethereum = tokensToEthereum_(1e18);\n            uint256 _dividends = SafeMath.div(_ethereum, dividendFee_  );\n            uint256 _taxedEthereum = SafeMath.add(_ethereum, _dividends);\n            return _taxedEthereum;\n        }\n    }\n    \n    /**\n     * Function for the frontend to dynamically retrieve the price scaling of buy orders.\n     */\n    function calculateTokensReceived(uint256 _ethereumToSpend) \n        public \n        view \n        returns(uint256)\n    {\n        uint256 _dividends = SafeMath.div(_ethereumToSpend, dividendFee_);\n        uint256 _taxedEthereum = SafeMath.sub(_ethereumToSpend, _dividends);\n        uint256 _amountOfTokens = ethereumToTokens_(_taxedEthereum);\n        \n        return _amountOfTokens;\n    }\n    \n    /**\n     * Function for the frontend to dynamically retrieve the price scaling of sell orders.\n     */\n    function calculateEthereumReceived(uint256 _tokensToSell) \n        public \n        view \n        returns(uint256)\n    {\n        require(_tokensToSell <= tokenSupply_);\n        uint256 _ethereum = tokensToEthereum_(_tokensToSell);\n        uint256 _dividends = SafeMath.div(_ethereum, dividendFee_);\n        uint256 _taxedEthereum = SafeMath.sub(_ethereum, _dividends);\n        return _taxedEthereum;\n    }\n    \n    function getReferralBonus(uint256 _value) public returns (uint256 referralBonus){\n        if (balanceOf(msg.sender) >= maxReferrerBonusRequirement) {\n            return SafeMath.div(SafeMath.mul(_value, 100), maxReferrerBonus);\n        } else {\n            uint256 actualReferrerBonus = minReferrerBonus + (maxReferrerBonus - minReferrerBonus) * balanceOf(msg.sender) / maxReferrerBonusRequirement;\n            return SafeMath.div(SafeMath.mul(_value, 100), actualReferrerBonus);\n        }\n    }\n    \n\n    /*==========================================\n    =            INTERNAL FUNCTIONS            =\n    ==========================================*/\n    function purchaseTokens(uint256 _incomingEthereum, address _referredBy)\n        internal\n        returns(uint256)\n    {\n        // data setup\n        address _customerAddress = msg.sender;\n        uint256 _undividedDividends = SafeMath.div(_incomingEthereum, dividendFee_);\n        uint256 _referralBonus = getReferralBonus(_undividedDividends);\n        uint256 _dividends = SafeMath.sub(_undividedDividends, _referralBonus);\n        uint256 _taxedEthereum = SafeMath.sub(_incomingEthereum, _undividedDividends);\n        uint256 _amountOfTokens = ethereumToTokens_(_taxedEthereum);\n        uint256 _fee = _dividends * magnitude;\n \n        // no point in continuing execution if OP is a poorfag russian hacker\n        // prevents overflow in the case that the pyramid somehow magically starts being used by everyone in the world\n        // (or hackers)\n        // and yes we know that the safemath function automatically rules out the \"greater then\" equasion.\n        require(_amountOfTokens > 0 && (SafeMath.add(_amountOfTokens,tokenSupply_) > tokenSupply_));\n        \n        // is the user referred by a masternode?\n        if(\n            // is this a referred purchase?\n            _referredBy != 0x0000000000000000000000000000000000000000 &&\n\n            // no cheating!\n            _referredBy != _customerAddress\n            \n        ){\n            // wealth redistribution\n            referralBalance_[_referredBy] = SafeMath.add(referralBalance_[_referredBy], _referralBonus);\n        } else {\n            // no ref purchase\n            // add the referral bonus back to the global dividends cake\n            _dividends = SafeMath.add(_dividends, _referralBonus);\n            _fee = _dividends * magnitude;\n        }\n        \n        // we can't give people infinite ethereum\n        if(tokenSupply_ > 0){\n            \n            // add tokens to the pool\n            tokenSupply_ = SafeMath.add(tokenSupply_, _amountOfTokens);\n \n            // take the amount of dividends gained through this transaction, and allocates them evenly to each shareholder\n            makeProfit(_dividends);            \n            \n            // calculate the amount of tokens the customer receives over his purchase \n            _fee = _amountOfTokens * (_dividends * magnitude / (tokenSupply_));\n        \n        } else {\n            // add tokens to the pool\n            tokenSupply_ = _amountOfTokens;\n        }\n        \n        // update circulating supply & the ledger address for the customer\n        tokenBalanceLedger_[_customerAddress] = SafeMath.add(tokenBalanceLedger_[_customerAddress], _amountOfTokens);\n        \n        // Tells the contract that the buyer doesn't deserve dividends for the tokens before they owned them;\n        //really i know you think you do but you don't\n        int256 _updatedPayouts = (int256) ((profitPerShare_ * _amountOfTokens) - _fee);\n        payoutsTo_[_customerAddress] += _updatedPayouts;\n        \n        // fire event\n        onTokenPurchase(_customerAddress, _incomingEthereum, _amountOfTokens, _referredBy);\n        \n        return _amountOfTokens;\n    }\n\n    /**\n     * Calculate Token price based on an amount of incoming ethereum\n     * It's an algorithm, hopefully we gave you the whitepaper with it in scientific notation;\n     * Some conversions occurred to prevent decimal errors or underflows / overflows in solidity code.\n     */\n    function ethereumToTokens_(uint256 _ethereum)\n        internal\n        view\n        returns(uint256)\n    {\n        uint256 _tokenPriceInitial = tokenPriceInitial_ * 1e18;\n        uint256 _tokensReceived = \n         (\n            (\n                // underflow attempts BTFO\n                SafeMath.sub(\n                    (sqrt\n                        (\n                            (_tokenPriceInitial**2)\n                            +\n                            (2*(tokenPriceIncremental_ * 1e18)*(_ethereum * 1e18))\n                            +\n                            (((tokenPriceIncremental_)**2)*(tokenSupply_**2))\n                            +\n                            (2*(tokenPriceIncremental_)*_tokenPriceInitial*tokenSupply_)\n                        )\n                    ), _tokenPriceInitial\n                )\n            )/(tokenPriceIncremental_)\n        )-(tokenSupply_)\n        ;\n  \n        return _tokensReceived;\n    }\n    \n    /**\n     * Calculate token sell value.\n     * It's an algorithm, hopefully we gave you the whitepaper with it in scientific notation;\n     * Some conversions occurred to prevent decimal errors or underflows / overflows in solidity code.\n     */\n     function tokensToEthereum_(uint256 _tokens)\n        internal\n        view\n        returns(uint256)\n    {\n\n        uint256 tokens_ = (_tokens + 1e18);\n        uint256 _tokenSupply = (tokenSupply_ + 1e18);\n        uint256 _etherReceived =\n        (\n            // underflow attempts BTFO\n            SafeMath.sub(\n                (\n                    (\n                        (\n                            tokenPriceInitial_ +(tokenPriceIncremental_ * (_tokenSupply/1e18))\n                        )-tokenPriceIncremental_\n                    )*(tokens_ - 1e18)\n                ),(tokenPriceIncremental_*((tokens_**2-tokens_)/1e18))/2\n            )\n        /1e18);\n        return _etherReceived;\n    }\n    \n    \n    //This is where all your gas goes, sorry\n    //Not sorry, you probably only paid 1 gwei\n    function sqrt(uint x) internal pure returns (uint y) {\n        uint z = (x + 1) / 2;\n        y = x;\n        while (z < y) {\n            y = z;\n            z = (x / z + z) / 2;\n        }\n    }\n}\n\n/**\n * @title SafeMath\n * @dev Math operations with safety checks that throw on error\n */\nlibrary SafeMath {\n\n    /**\n    * @dev Multiplies two numbers, throws on overflow.\n    */\n    function mul(uint256 a, uint256 b) internal pure returns (uint256) {\n        if (a == 0) {\n            return 0;\n        }\n        uint256 c = a * b;\n        assert(c / a == b);\n        return c;\n    }\n\n    /**\n    * @dev Integer division of two numbers, truncating the quotient.\n    */\n    function div(uint256 a, uint256 b) internal pure returns (uint256) {\n        // assert(b > 0); // Solidity automatically throws when dividing by 0\n        uint256 c = a / b;\n        // assert(a == b * c + a % b); // There is no case in which this doesn't hold\n        return c;\n    }\n\n    /**\n    * @dev Substracts two numbers, throws on overflow (i.e. if subtrahend is greater than minuend).\n    */\n    function sub(uint256 a, uint256 b) internal pure returns (uint256) {\n        assert(b <= a);\n        return a - b;\n    }\n\n    /**\n    * @dev Adds two numbers, throws on overflow.\n    */\n    function add(uint256 a, uint256 b) internal pure returns (uint256) {\n        uint256 c = a + b;\n        assert(c >= a);\n        return c;\n    }\n}",
  "sourcePath": "/Users/minakokojima/Documents/GitHub/dapp-examples/Contracts/Ethereum/contracts/PowhToken.sol",
  "compiler": {
    "name": "solc",
    "version": "0.4.24+commit.e67f0147.Emscripten.clang"
  },
  "schemaVersion": "2.0.1",
  "updatedAt": "2018-08-06T18:32:45.465Z"
}